{
  "contractName": "Medchain",
  "abi": [
    {
      "constant": true,
      "inputs": [
        {
          "name": "",
          "type": "address"
        }
      ],
      "name": "users",
      "outputs": [
        {
          "name": "userName",
          "type": "string"
        },
        {
          "name": "userAccount",
          "type": "address"
        },
        {
          "name": "userType",
          "type": "uint8"
        }
      ],
      "payable": false,
      "stateMutability": "view",
      "type": "function"
    },
    {
      "constant": true,
      "inputs": [],
      "name": "admin",
      "outputs": [
        {
          "name": "",
          "type": "address"
        }
      ],
      "payable": false,
      "stateMutability": "view",
      "type": "function"
    },
    {
      "inputs": [],
      "payable": false,
      "stateMutability": "nonpayable",
      "type": "constructor"
    },
    {
      "constant": false,
      "inputs": [
        {
          "name": "_userName",
          "type": "string"
        },
        {
          "name": "_useraccount",
          "type": "address"
        },
        {
          "name": "_userType",
          "type": "uint8"
        }
      ],
      "name": "createUser",
      "outputs": [],
      "payable": false,
      "stateMutability": "nonpayable",
      "type": "function"
    },
    {
      "constant": false,
      "inputs": [
        {
          "name": "_batchId",
          "type": "string"
        },
        {
          "name": "_noOfMedicines",
          "type": "uint256"
        },
        {
          "name": "_manufacturedDate",
          "type": "string"
        },
        {
          "name": "_createdDate",
          "type": "string"
        },
        {
          "name": "_expirydate",
          "type": "string"
        },
        {
          "name": "_location",
          "type": "string"
        },
        {
          "name": "_sourceCountry",
          "type": "string"
        },
        {
          "name": "_destinationCountry",
          "type": "string"
        }
      ],
      "name": "createBatch",
      "outputs": [],
      "payable": false,
      "stateMutability": "nonpayable",
      "type": "function"
    },
    {
      "constant": true,
      "inputs": [
        {
          "name": "_batchId",
          "type": "string"
        }
      ],
      "name": "getBatchData",
      "outputs": [
        {
          "name": "",
          "type": "string"
        },
        {
          "name": "",
          "type": "uint256"
        },
        {
          "name": "",
          "type": "string"
        },
        {
          "name": "",
          "type": "string"
        },
        {
          "name": "",
          "type": "address"
        },
        {
          "name": "",
          "type": "uint8"
        },
        {
          "name": "",
          "type": "uint8"
        },
        {
          "name": "",
          "type": "string"
        },
        {
          "name": "",
          "type": "string"
        }
      ],
      "payable": false,
      "stateMutability": "view",
      "type": "function"
    },
    {
      "constant": true,
      "inputs": [
        {
          "name": "_batchId",
          "type": "string"
        }
      ],
      "name": "getBatchDateData",
      "outputs": [
        {
          "name": "",
          "type": "string"
        },
        {
          "name": "",
          "type": "string"
        },
        {
          "name": "",
          "type": "string"
        },
        {
          "name": "",
          "type": "string"
        },
        {
          "name": "",
          "type": "string"
        }
      ],
      "payable": false,
      "stateMutability": "view",
      "type": "function"
    },
    {
      "constant": false,
      "inputs": [
        {
          "name": "_batchId",
          "type": "string"
        },
        {
          "name": "_destinationCountry",
          "type": "string"
        }
      ],
      "name": "dispatchBatch",
      "outputs": [],
      "payable": false,
      "stateMutability": "nonpayable",
      "type": "function"
    },
    {
      "constant": false,
      "inputs": [
        {
          "name": "_batchId",
          "type": "string"
        },
        {
          "name": "_destinationCountry",
          "type": "string"
        }
      ],
      "name": "receiveBatch",
      "outputs": [],
      "payable": false,
      "stateMutability": "nonpayable",
      "type": "function"
    }
  ],
  "bytecode": "0x60806040523480156200001157600080fd5b50336000806101000a81548173ffffffffffffffffffffffffffffffffffffffff021916908373ffffffffffffffffffffffffffffffffffffffff160217905550620000c56040805190810160405280600d81526020017f4d6564547261636b41646d696e000000000000000000000000000000000000008152506000809054906101000a900473ffffffffffffffffffffffffffffffffffffffff166000620000cb640100000000026401000000009004565b6200033d565b620000d56200024a565b6000809054906101000a900473ffffffffffffffffffffffffffffffffffffffff1673ffffffffffffffffffffffffffffffffffffffff163373ffffffffffffffffffffffffffffffffffffffff161415156200013157600080fd5b6060604051908101604052808581526020018473ffffffffffffffffffffffffffffffffffffffff1681526020018360098111156200016c57fe5b815250905080600160008573ffffffffffffffffffffffffffffffffffffffff1673ffffffffffffffffffffffffffffffffffffffff1681526020019081526020016000206000820151816000019080519060200190620001cf9291906200028e565b5060208201518160010160006101000a81548173ffffffffffffffffffffffffffffffffffffffff021916908373ffffffffffffffffffffffffffffffffffffffff16021790555060408201518160010160146101000a81548160ff021916908360098111156200023c57fe5b021790555090505050505050565b60606040519081016040528060608152602001600073ffffffffffffffffffffffffffffffffffffffff168152602001600060098111156200028857fe5b81525090565b828054600181600116156101000203166002900490600052602060002090601f016020900481019282601f10620002d157805160ff191683800117855562000302565b8280016001018555821562000302579182015b8281111562000301578251825591602001919060010190620002e4565b5b50905062000311919062000315565b5090565b6200033a91905b80821115620003365760008160009055506001016200031c565b5090565b90565b6128d1806200034d6000396000f30060806040526004361061008e576000357c0100000000000000000000000000000000000000000000000000000000900463ffffffff1680630b1abc5514610093578063231e261e146101425780632b7c98bc146101d85780634c15de6814610287578063847648b8146105195780639916a1d61461080f578063a87430ba14610a26578063f851a44014610b2a575b600080fd5b34801561009f57600080fd5b50610140600480360381019080803590602001908201803590602001908080601f0160208091040260200160405190810160405280939291908181526020018383808284378201915050505050509192919290803590602001908201803590602001908080601f0160208091040260200160405190810160405280939291908181526020018383808284378201915050505050509192919290505050610b81565b005b34801561014e57600080fd5b506101d6600480360381019080803590602001908201803590602001908080601f0160208091040260200160405190810160405280939291908181526020018383808284378201915050505050509192919290803573ffffffffffffffffffffffffffffffffffffffff169060200190929190803560ff169060200190929190505050611294565b005b3480156101e457600080fd5b50610285600480360381019080803590602001908201803590602001908080601f0160208091040260200160405190810160405280939291908181526020018383808284378201915050505050509192919290803590602001908201803590602001908080601f016020809104026020016040519081016040528093929190818152602001838380828437820191505050505050919291929050505061140c565b005b34801561029357600080fd5b506102ee600480360381019080803590602001908201803590602001908080601f016020809104026020016040519081016040528093929190818152602001838380828437820191505050505050919291929050505061189c565b60405180806020018060200180602001806020018060200186810386528b818151815260200191508051906020019080838360005b8381101561033e578082015181840152602081019050610323565b50505050905090810190601f16801561036b5780820380516001836020036101000a031916815260200191505b5086810385528a818151815260200191508051906020019080838360005b838110156103a4578082015181840152602081019050610389565b50505050905090810190601f1680156103d15780820380516001836020036101000a031916815260200191505b50868103845289818151815260200191508051906020019080838360005b8381101561040a5780820151818401526020810190506103ef565b50505050905090810190601f1680156104375780820380516001836020036101000a031916815260200191505b50868103835288818151815260200191508051906020019080838360005b83811015610470578082015181840152602081019050610455565b50505050905090810190601f16801561049d5780820380516001836020036101000a031916815260200191505b50868103825287818151815260200191508051906020019080838360005b838110156104d65780820151818401526020810190506104bb565b50505050905090810190601f1680156105035780820380516001836020036101000a031916815260200191505b509a505050505050505050505060405180910390f35b34801561052557600080fd5b50610580600480360381019080803590602001908201803590602001908080601f0160208091040260200160405190810160405280939291908181526020018383808284378201915050505050509192919290505050611c8b565b60405180806020018a815260200180602001806020018973ffffffffffffffffffffffffffffffffffffffff1673ffffffffffffffffffffffffffffffffffffffff1681526020018860038111156105d457fe5b60ff1681526020018760098111156105e857fe5b60ff168152602001806020018060200186810386528f818151815260200191508051906020019080838360005b83811015610630578082015181840152602081019050610615565b50505050905090810190601f16801561065d5780820380516001836020036101000a031916815260200191505b5086810385528d818151815260200191508051906020019080838360005b8381101561069657808201518184015260208101905061067b565b50505050905090810190601f1680156106c35780820380516001836020036101000a031916815260200191505b5086810384528c818151815260200191508051906020019080838360005b838110156106fc5780820151818401526020810190506106e1565b50505050905090810190601f1680156107295780820380516001836020036101000a031916815260200191505b50868103835288818151815260200191508051906020019080838360005b83811015610762578082015181840152602081019050610747565b50505050905090810190601f16801561078f5780820380516001836020036101000a031916815260200191505b50868103825287818151815260200191508051906020019080838360005b838110156107c85780820151818401526020810190506107ad565b50505050905090810190601f1680156107f55780820380516001836020036101000a031916815260200191505b509e50505050505050505050505050505060405180910390f35b34801561081b57600080fd5b50610a24600480360381019080803590602001908201803590602001908080601f016020809104026020016040519081016040528093929190818152602001838380828437820191505050505050919291929080359060200190929190803590602001908201803590602001908080601f0160208091040260200160405190810160405280939291908181526020018383808284378201915050505050509192919290803590602001908201803590602001908080601f0160208091040260200160405190810160405280939291908181526020018383808284378201915050505050509192919290803590602001908201803590602001908080601f0160208091040260200160405190810160405280939291908181526020018383808284378201915050505050509192919290803590602001908201803590602001908080601f0160208091040260200160405190810160405280939291908181526020018383808284378201915050505050509192919290803590602001908201803590602001908080601f0160208091040260200160405190810160405280939291908181526020018383808284378201915050505050509192919290803590602001908201803590602001908080601f016020809104026020016040519081016040528093929190818152602001838380828437820191505050505050919291929050505061215d565b005b348015610a3257600080fd5b50610a67600480360381019080803573ffffffffffffffffffffffffffffffffffffffff169060200190929190505050612579565b60405180806020018473ffffffffffffffffffffffffffffffffffffffff1673ffffffffffffffffffffffffffffffffffffffff168152602001836009811115610aad57fe5b60ff168152602001828103825285818151815260200191508051906020019080838360005b83811015610aed578082015181840152602081019050610ad2565b50505050905090810190601f168015610b1a5780820380516001836020036101000a031916815260200191505b5094505050505060405180910390f35b348015610b3657600080fd5b50610b3f612668565b604051808273ffffffffffffffffffffffffffffffffffffffff1673ffffffffffffffffffffffffffffffffffffffff16815260200191505060405180910390f35b6000600160003373ffffffffffffffffffffffffffffffffffffffff1673ffffffffffffffffffffffffffffffffffffffff16815260200190815260200160002060010160009054906101000a900473ffffffffffffffffffffffffffffffffffffffff1673ffffffffffffffffffffffffffffffffffffffff1614151515610c0957600080fd5b8160006002826040518082805190602001908083835b602083101515610c445780518252602082019150602081019050602083039250610c1f565b6001836020036101000a038019825116818451168082178552505050505050905001915050908152602001604051809103902060040160009054906101000a900473ffffffffffffffffffffffffffffffffffffffff1673ffffffffffffffffffffffffffffffffffffffff1614151515610cbe57600080fd5b8260026003811115610ccc57fe5b6002826040518082805190602001908083835b602083101515610d045780518252602082019150602081019050602083039250610cdf565b6001836020036101000a038019825116818451168082178552505050505050905001915050908152602001604051809103902060040160149054906101000a900460ff166003811115610d5357fe5b14151515610d6057600080fd5b83600160003373ffffffffffffffffffffffffffffffffffffffff1673ffffffffffffffffffffffffffffffffffffffff16815260200190815260200160002060010160149054906101000a900460ff166009811115610dbc57fe5b60016002836040518082805190602001908083835b602083101515610df65780518252602082019150602081019050602083039250610dd1565b6001836020036101000a038019825116818451168082178552505050505050905001915050908152602001604051809103902060040160159054906101000a900460ff166009811115610e4557fe5b01141515610e5257600080fd5b8484806040518082805190602001908083835b602083101515610e8a5780518252602082019150602081019050602083039250610e65565b6001836020036101000a0380198251168184511680821785525050505050509050019150506040518091039020600019166002836040518082805190602001908083835b602083101515610ef35780518252602082019150602081019050602083039250610ece565b6001836020036101000a03801982511681845116808217855250505050505090500191505090815260200160405180910390206006016040518082805460018160011615610100020316600290048015610f845780601f10610f62576101008083540402835291820191610f84565b820191906000526020600020905b815481529060010190602001808311610f70575b5050915050604051809103902060001916141515610fa157600080fd5b600280886040518082805190602001908083835b602083101515610fda5780518252602082019150602081019050602083039250610fb5565b6001836020036101000a038019825116818451168082178552505050505050905001915050908152602001604051809103902060040160146101000a81548160ff0219169083600381111561102b57fe5b0217905550336002886040518082805190602001908083835b6020831015156110695780518252602082019150602081019050602083039250611044565b6001836020036101000a038019825116818451168082178552505050505050905001915050908152602001604051809103902060040160006101000a81548173ffffffffffffffffffffffffffffffffffffffff021916908373ffffffffffffffffffffffffffffffffffffffff160217905550600160003373ffffffffffffffffffffffffffffffffffffffff1673ffffffffffffffffffffffffffffffffffffffff16815260200190815260200160002060010160149054906101000a900460ff166002886040518082805190602001908083835b6020831015156111655780518252602082019150602081019050602083039250611140565b6001836020036101000a038019825116818451168082178552505050505050905001915050908152602001604051809103902060040160156101000a81548160ff021916908360098111156111b657fe5b0217905550600160003373ffffffffffffffffffffffffffffffffffffffff1673ffffffffffffffffffffffffffffffffffffffff1681526020019081526020016000206000016002886040518082805190602001908083835b6020831015156112355780518252602082019150602081019050602083039250611210565b6001836020036101000a0380198251168184511680821785525050505050509050019150509081526020016040518091039020600301908054600181600116156101000203166002900461128a92919061268d565b5050505050505050565b61129c612714565b6000809054906101000a900473ffffffffffffffffffffffffffffffffffffffff1673ffffffffffffffffffffffffffffffffffffffff163373ffffffffffffffffffffffffffffffffffffffff161415156112f757600080fd5b6060604051908101604052808581526020018473ffffffffffffffffffffffffffffffffffffffff16815260200183600981111561133157fe5b815250905080600160008573ffffffffffffffffffffffffffffffffffffffff1673ffffffffffffffffffffffffffffffffffffffff1681526020019081526020016000206000820151816000019080519060200190611392929190612757565b5060208201518160010160006101000a81548173ffffffffffffffffffffffffffffffffffffffff021916908373ffffffffffffffffffffffffffffffffffffffff16021790555060408201518160010160146101000a81548160ff021916908360098111156113fe57fe5b021790555090505050505050565b6000600160003373ffffffffffffffffffffffffffffffffffffffff1673ffffffffffffffffffffffffffffffffffffffff16815260200190815260200160002060010160009054906101000a900473ffffffffffffffffffffffffffffffffffffffff1673ffffffffffffffffffffffffffffffffffffffff161415151561149457600080fd5b8160006002826040518082805190602001908083835b6020831015156114cf57805182526020820191506020810190506020830392506114aa565b6001836020036101000a038019825116818451168082178552505050505050905001915050908152602001604051809103902060040160009054906101000a900473ffffffffffffffffffffffffffffffffffffffff1673ffffffffffffffffffffffffffffffffffffffff161415151561154957600080fd5b826002600381111561155757fe5b6002826040518082805190602001908083835b60208310151561158f578051825260208201915060208101905060208303925061156a565b6001836020036101000a038019825116818451168082178552505050505050905001915050908152602001604051809103902060040160149054906101000a900460ff1660038111156115de57fe5b141515156115eb57600080fd5b833373ffffffffffffffffffffffffffffffffffffffff166002826040518082805190602001908083835b60208310151561163b5780518252602082019150602081019050602083039250611616565b6001836020036101000a038019825116818451168082178552505050505050905001915050908152602001604051809103902060040160009054906101000a900473ffffffffffffffffffffffffffffffffffffffff1673ffffffffffffffffffffffffffffffffffffffff161415156116b457600080fd5b8484806040518082805190602001908083835b6020831015156116ec57805182526020820191506020810190506020830392506116c7565b6001836020036101000a0380198251168184511680821785525050505050509050019150506040518091039020600019166002836040518082805190602001908083835b6020831015156117555780518252602082019150602081019050602083039250611730565b6001836020036101000a038019825116818451168082178552505050505050905001915050908152602001604051809103902060060160405180828054600181600116156101000203166002900480156117e65780601f106117c45761010080835404028352918201916117e6565b820191906000526020600020905b8154815290600101906020018083116117d2575b505091505060405180910390206000191614151561180357600080fd5b60016002886040518082805190602001908083835b60208310151561183d5780518252602082019150602081019050602083039250611818565b6001836020036101000a038019825116818451168082178552505050505050905001915050908152602001604051809103902060040160146101000a81548160ff0219169083600381111561188e57fe5b021790555050505050505050565b60608060608060606118ac6127d7565b6003876040518082805190602001908083835b6020831015156118e457805182526020820191506020810190506020830392506118bf565b6001836020036101000a038019825116818451168082178552505050505050905001915050908152602001604051809103902060a06040519081016040529081600082018054600181600116156101000203166002900480601f0160208091040260200160405190810160405280929190818152602001828054600181600116156101000203166002900480156119bc5780601f10611991576101008083540402835291602001916119bc565b820191906000526020600020905b81548152906001019060200180831161199f57829003601f168201915b50505050508152602001600182018054600181600116156101000203166002900480601f016020809104026020016040519081016040528092919081815260200182805460018160011615610100020316600290048015611a5e5780601f10611a3357610100808354040283529160200191611a5e565b820191906000526020600020905b815481529060010190602001808311611a4157829003601f168201915b50505050508152602001600282018054600181600116156101000203166002900480601f016020809104026020016040519081016040528092919081815260200182805460018160011615610100020316600290048015611b005780601f10611ad557610100808354040283529160200191611b00565b820191906000526020600020905b815481529060010190602001808311611ae357829003601f168201915b50505050508152602001600382018054600181600116156101000203166002900480601f016020809104026020016040519081016040528092919081815260200182805460018160011615610100020316600290048015611ba25780601f10611b7757610100808354040283529160200191611ba2565b820191906000526020600020905b815481529060010190602001808311611b8557829003601f168201915b50505050508152602001600482018054600181600116156101000203166002900480601f016020809104026020016040519081016040528092919081815260200182805460018160011615610100020316600290048015611c445780601f10611c1957610100808354040283529160200191611c44565b820191906000526020600020905b815481529060010190602001808311611c2757829003601f168201915b505050505081525050905080600001518160200151826060015183604001518460800151849450839350829250819150809050955095509550955095505091939590929450565b606060006060806000806000606080611ca2612807565b60028b6040518082805190602001908083835b602083101515611cda5780518252602082019150602081019050602083039250611cb5565b6001836020036101000a03801982511681845116808217855250505050505090500191505090815260200160405180910390206101206040519081016040529081600082018054600181600116156101000203166002900480601f016020809104026020016040519081016040528092919081815260200182805460018160011615610100020316600290048015611db35780601f10611d8857610100808354040283529160200191611db3565b820191906000526020600020905b815481529060010190602001808311611d9657829003601f168201915b5050505050815260200160018201548152602001600282018054600181600116156101000203166002900480601f016020809104026020016040519081016040528092919081815260200182805460018160011615610100020316600290048015611e5f5780601f10611e3457610100808354040283529160200191611e5f565b820191906000526020600020905b815481529060010190602001808311611e4257829003601f168201915b50505050508152602001600382018054600181600116156101000203166002900480601f016020809104026020016040519081016040528092919081815260200182805460018160011615610100020316600290048015611f015780601f10611ed657610100808354040283529160200191611f01565b820191906000526020600020905b815481529060010190602001808311611ee457829003601f168201915b505050505081526020016004820160009054906101000a900473ffffffffffffffffffffffffffffffffffffffff1673ffffffffffffffffffffffffffffffffffffffff1673ffffffffffffffffffffffffffffffffffffffff1681526020016004820160149054906101000a900460ff166003811115611f7e57fe5b6003811115611f8957fe5b81526020016004820160159054906101000a900460ff166009811115611fab57fe5b6009811115611fb657fe5b8152602001600582018054600181600116156101000203166002900480601f0160208091040260200160405190810160405280929190818152602001828054600181600116156101000203166002900480156120535780601f1061202857610100808354040283529160200191612053565b820191906000526020600020905b81548152906001019060200180831161203657829003601f168201915b50505050508152602001600682018054600181600116156101000203166002900480601f0160208091040260200160405190810160405280929190818152602001828054600181600116156101000203166002900480156120f55780601f106120ca576101008083540402835291602001916120f5565b820191906000526020600020905b8154815290600101906020018083116120d857829003601f168201915b5050505050815250509050806000015181602001518260400151836060015184608001518560a001518660c001518760e00151886101000151889850869650859550819150809050995099509950995099509950995099509950509193959799909294969850565b612165612807565b61216d6127d7565b6000809054906101000a900473ffffffffffffffffffffffffffffffffffffffff1673ffffffffffffffffffffffffffffffffffffffff163373ffffffffffffffffffffffffffffffffffffffff161415156121c857600080fd5b610120604051908101604052808b81526020018a81526020018681526020016040805190810160405280600d81526020017f4d6564547261636b41646d696e0000000000000000000000000000000000000081525081526020016000809054906101000a900473ffffffffffffffffffffffffffffffffffffffff1673ffffffffffffffffffffffffffffffffffffffff1681526020016000600381111561226c57fe5b81526020016000600981111561227e57fe5b815260200185815260200184815250915060a0604051908101604052808b8152602001898152602001888152602001878152602001602060405190810160405280600081525081525090508160028b6040518082805190602001908083835b60208310151561230257805182526020820191506020810190506020830392506122dd565b6001836020036101000a03801982511681845116808217855250505050505090500191505090815260200160405180910390206000820151816000019080519060200190612351929190612757565b50602082015181600101556040820151816002019080519060200190612378929190612757565b506060820151816003019080519060200190612395929190612757565b5060808201518160040160006101000a81548173ffffffffffffffffffffffffffffffffffffffff021916908373ffffffffffffffffffffffffffffffffffffffff16021790555060a08201518160040160146101000a81548160ff0219169083600381111561240157fe5b021790555060c08201518160040160156101000a81548160ff0219169083600981111561242a57fe5b021790555060e082015181600501908051906020019061244b929190612757565b50610100820151816006019080519060200190612469929190612757565b509050508060038b6040518082805190602001908083835b6020831015156124a65780518252602082019150602081019050602083039250612481565b6001836020036101000a038019825116818451168082178552505050505050905001915050908152602001604051809103902060008201518160000190805190602001906124f5929190612757565b506020820151816001019080519060200190612512929190612757565b50604082015181600201908051906020019061252f929190612757565b50606082015181600301908051906020019061254c929190612757565b506080820151816004019080519060200190612569929190612757565b5090505050505050505050505050565b6001602052806000526040600020600091509050806000018054600181600116156101000203166002900480601f0160208091040260200160405190810160405280929190818152602001828054600181600116156101000203166002900480156126255780601f106125fa57610100808354040283529160200191612625565b820191906000526020600020905b81548152906001019060200180831161260857829003601f168201915b5050505050908060010160009054906101000a900473ffffffffffffffffffffffffffffffffffffffff16908060010160149054906101000a900460ff16905083565b6000809054906101000a900473ffffffffffffffffffffffffffffffffffffffff1681565b828054600181600116156101000203166002900490600052602060002090601f016020900481019282601f106126c65780548555612703565b8280016001018555821561270357600052602060002091601f016020900482015b828111156127025782548255916001019190600101906126e7565b5b5090506127109190612880565b5090565b60606040519081016040528060608152602001600073ffffffffffffffffffffffffffffffffffffffff1681526020016000600981111561275157fe5b81525090565b828054600181600116156101000203166002900490600052602060002090601f016020900481019282601f1061279857805160ff19168380011785556127c6565b828001600101855582156127c6579182015b828111156127c55782518255916020019190600101906127aa565b5b5090506127d39190612880565b5090565b60a06040519081016040528060608152602001606081526020016060815260200160608152602001606081525090565b6101206040519081016040528060608152602001600081526020016060815260200160608152602001600073ffffffffffffffffffffffffffffffffffffffff1681526020016000600381111561285a57fe5b81526020016000600981111561286c57fe5b815260200160608152602001606081525090565b6128a291905b8082111561289e576000816000905550600101612886565b5090565b905600a165627a7a723058201ade48de3d83c8fc2c9ea6b0a2f1d579ac22d0216b4921a94ef86215512db0920029",
  "source": "pragma solidity ^0.4.22;\n\ncontract Medchain {\n    address public admin;\n    \n    enum USERTYPES {\n        ADMIN,\n        AIRLINE,\n        GROUNDCLEARANCE,\n        CUSTOM,\n        WAREHOUSE,\n        DISTRIBUTOR,\n        PHARMACY,\n        NGO,\n        CUSTOMER,\n        DOCTOR\n    }\n    \n    enum STATUS {\n        CREATED,\n        DISPATCHED,\n        RECEIVED,\n        DELIVERED\n    }\n    \n    struct Batch {\n        string batchId;\n        uint noOfMedicines;\n        string location;\n        string currentOwnerName;\n        address currentOwner;\n        STATUS status;\n        USERTYPES currentOwnerType;\n        string sourceCountry;\n        string destinationCountry;\n    }\n    \n    struct BatchDate {\n        string batchId;\n        string manufacturedDate;\n        string createdDate;\n        string expiryDate;\n        string deliveredDate;\n    }\n    mapping(address=>User) public users;\n    mapping(string=>Batch) private batches;\n    mapping(string=>BatchDate) private batchdates;\n    \n    modifier onlyAdmin(){\n        require(msg.sender==admin);\n        _;\n    }\n    \n    modifier onlyvalidUser(){\n        require(users[msg.sender].userAccount!=0);\n        _;\n    }\n    \n    modifier checkBatch(string _batchId){\n        require(batches[_batchId].currentOwner!=0);\n        _;\n    }\n    \n    modifier canDispatch(string _batchId){\n        require(batches[_batchId].status!=STATUS.DISPATCHED && batches[_batchId].currentOwner==msg.sender);\n        _;\n    }\n    \n    modifier canReceiveBatch(string _batchId) { \n        require(batches[_batchId].status!=STATUS.RECEIVED);\n        _; \n    }\n    \n    modifier onlyValidDestination(string _batchId, string _destinationCountry) { \n        require(keccak256(batches[_batchId].destinationCountry)==keccak256(_destinationCountry));\n        _;\n    }\n    modifier checkPreviousUser(string _batchId) { \n        require(uint(batches[_batchId].currentOwnerType)+1==uint(users[msg.sender].userType));\n        _; \n    }\n    modifier checkSameUser(string _batchId) { \n        require(batches[_batchId].currentOwner==msg.sender);\n        _; \n    }\n    \n    \n    struct User {\n        string userName;\n        address userAccount;\n        USERTYPES userType;\n    }\n    function Medchain() public {\n        admin = msg.sender;\n        createUser(\"MedTrackAdmin\", admin, USERTYPES.ADMIN);\n    }\n    \n    function createUser(string _userName, address _useraccount, USERTYPES _userType) onlyAdmin public {\n        User memory data = User(_userName,_useraccount, _userType);\n        users[_useraccount]=data;\n    }\n    \n    function createBatch(string _batchId,\n                         uint _noOfMedicines,\n                         string _manufacturedDate,\n                         string _createdDate,\n                         string _expirydate,\n                         string _location,\n                         string _sourceCountry,\n                         string _destinationCountry) \n                         onlyAdmin \n                         public{\n                             Batch memory data = Batch(_batchId, _noOfMedicines, _location,\"MedTrackAdmin\", admin,STATUS.CREATED, USERTYPES.ADMIN, _sourceCountry, _destinationCountry);\n                             BatchDate memory datedata = BatchDate(_batchId, _manufacturedDate, _createdDate, _expirydate, \"\");\n                             batches[_batchId] = data;\n                             batchdates[_batchId]= datedata;\n                         }\n                         \n    function getBatchData(string _batchId) \n    public \n    view\n    returns(string, uint, string,string, address, STATUS, USERTYPES, string, string){\n        Batch memory data = batches[_batchId];\n        \n        return (data.batchId, data.noOfMedicines, data.location,data.currentOwnerName, data.currentOwner, data.status, data.currentOwnerType, data.sourceCountry, data.destinationCountry);\n    }\n    \n    function getBatchDateData(string _batchId) \n    public \n    view\n    returns(string,string,string, string, string){\n        BatchDate memory data = batchdates[_batchId];\n        return (data.batchId ,data.manufacturedDate, data.expiryDate,data.createdDate, data.deliveredDate);\n    }\n    \n    function dispatchBatch(string _batchId, string _destinationCountry)\n    onlyvalidUser()\n    checkBatch(_batchId)\n    canReceiveBatch( _batchId)\n    checkSameUser(_batchId)\n    onlyValidDestination(_batchId,_destinationCountry)\n    public\n    {\n        batches[_batchId].status = STATUS.DISPATCHED;\n    }\n    \n    function receiveBatch(string _batchId, string _destinationCountry)\n    onlyvalidUser()\n    checkBatch(_batchId)\n    canReceiveBatch( _batchId)\n    checkPreviousUser(_batchId)\n    onlyValidDestination(_batchId,_destinationCountry)\n    public\n    {\n        batches[_batchId].status = STATUS.RECEIVED;\n        batches[_batchId].currentOwner = msg.sender;\n        batches[_batchId].currentOwnerType = users[msg.sender].userType;\n        batches[_batchId].currentOwnerName = users[msg.sender].userName;\n    }\n    \n}",
  "sourcePath": "/Users/dreambig/Seetha/Hackathons/devday/DevDayAPI/contracts/Medchain.sol",
  "compiler": {
    "name": "solc",
    "version": "0.4.24+commit.e67f0147.Emscripten.clang"
  },
  "schemaVersion": "2.0.1",
  "updatedAt": "2018-10-27T13:45:29.777Z"
}