{
  "contractName": "Medchain",
  "abi": [
    {
      "constant": true,
      "inputs": [
        {
          "name": "",
          "type": "address"
        }
      ],
      "name": "users",
      "outputs": [
        {
          "name": "userAccount",
          "type": "address"
        },
        {
          "name": "userType",
          "type": "uint8"
        }
      ],
      "payable": false,
      "stateMutability": "view",
      "type": "function"
    },
    {
      "constant": true,
      "inputs": [],
      "name": "admin",
      "outputs": [
        {
          "name": "",
          "type": "address"
        }
      ],
      "payable": false,
      "stateMutability": "view",
      "type": "function"
    },
    {
      "inputs": [],
      "payable": false,
      "stateMutability": "nonpayable",
      "type": "constructor"
    },
    {
      "constant": false,
      "inputs": [
        {
          "name": "_useraccount",
          "type": "address"
        },
        {
          "name": "_userType",
          "type": "uint8"
        }
      ],
      "name": "createUser",
      "outputs": [],
      "payable": false,
      "stateMutability": "nonpayable",
      "type": "function"
    },
    {
      "constant": false,
      "inputs": [
        {
          "name": "_batchId",
          "type": "string"
        },
        {
          "name": "_noOfMedicines",
          "type": "uint256"
        },
        {
          "name": "_manufacturedDate",
          "type": "string"
        },
        {
          "name": "_createdDate",
          "type": "string"
        },
        {
          "name": "_expirydate",
          "type": "string"
        },
        {
          "name": "_location",
          "type": "string"
        },
        {
          "name": "_sourceCountry",
          "type": "string"
        },
        {
          "name": "_destinationCountry",
          "type": "string"
        }
      ],
      "name": "createBatch",
      "outputs": [],
      "payable": false,
      "stateMutability": "nonpayable",
      "type": "function"
    },
    {
      "constant": true,
      "inputs": [
        {
          "name": "_batchId",
          "type": "string"
        }
      ],
      "name": "getBatchData",
      "outputs": [
        {
          "name": "",
          "type": "string"
        },
        {
          "name": "",
          "type": "uint256"
        },
        {
          "name": "",
          "type": "string"
        },
        {
          "name": "",
          "type": "address"
        },
        {
          "name": "",
          "type": "uint8"
        },
        {
          "name": "",
          "type": "uint8"
        },
        {
          "name": "",
          "type": "string"
        },
        {
          "name": "",
          "type": "string"
        }
      ],
      "payable": false,
      "stateMutability": "view",
      "type": "function"
    },
    {
      "constant": true,
      "inputs": [
        {
          "name": "_batchId",
          "type": "string"
        }
      ],
      "name": "getBatchDateData",
      "outputs": [
        {
          "name": "",
          "type": "string"
        },
        {
          "name": "",
          "type": "string"
        },
        {
          "name": "",
          "type": "string"
        },
        {
          "name": "",
          "type": "string"
        },
        {
          "name": "",
          "type": "string"
        }
      ],
      "payable": false,
      "stateMutability": "view",
      "type": "function"
    },
    {
      "constant": false,
      "inputs": [
        {
          "name": "_batchId",
          "type": "string"
        },
        {
          "name": "_destinationCountry",
          "type": "string"
        }
      ],
      "name": "dispatchBatch",
      "outputs": [],
      "payable": false,
      "stateMutability": "nonpayable",
      "type": "function"
    },
    {
      "constant": false,
      "inputs": [
        {
          "name": "_batchId",
          "type": "string"
        },
        {
          "name": "_destinationCountry",
          "type": "string"
        }
      ],
      "name": "receiveBatch",
      "outputs": [],
      "payable": false,
      "stateMutability": "nonpayable",
      "type": "function"
    }
  ],
  "bytecode": "0x60806040523480156200001157600080fd5b50336000806101000a81548173ffffffffffffffffffffffffffffffffffffffff021916908373ffffffffffffffffffffffffffffffffffffffff1602179055506200008f6000809054906101000a900473ffffffffffffffffffffffffffffffffffffffff16600062000095640100000000026401000000009004565b62000292565b6200009f62000256565b6000809054906101000a900473ffffffffffffffffffffffffffffffffffffffff1673ffffffffffffffffffffffffffffffffffffffff163373ffffffffffffffffffffffffffffffffffffffff1614151562000164576040517f08c379a00000000000000000000000000000000000000000000000000000000081526004018080602001828103825260198152602001807f41646d696e207065726d697373696f6e2072657175697265640000000000000081525060200191505060405180910390fd5b60408051908101604052808473ffffffffffffffffffffffffffffffffffffffff1681526020018360098111156200019857fe5b815250905080600160008573ffffffffffffffffffffffffffffffffffffffff1673ffffffffffffffffffffffffffffffffffffffff16815260200190815260200160002060008201518160000160006101000a81548173ffffffffffffffffffffffffffffffffffffffff021916908373ffffffffffffffffffffffffffffffffffffffff16021790555060208201518160000160146101000a81548160ff021916908360098111156200024957fe5b0217905550905050505050565b6040805190810160405280600073ffffffffffffffffffffffffffffffffffffffff168152602001600060098111156200028c57fe5b81525090565b612aca80620002a26000396000f30060806040526004361061008e576000357c0100000000000000000000000000000000000000000000000000000000900463ffffffff1680630b1abc55146100935780632b7c98bc146101425780634c15de68146101f1578063847648b8146104835780638523cfc61461070d5780639916a1d61461075d578063a87430ba14610974578063f851a44014610a0c575b600080fd5b34801561009f57600080fd5b50610140600480360381019080803590602001908201803590602001908080601f0160208091040260200160405190810160405280939291908181526020018383808284378201915050505050509192919290803590602001908201803590602001908080601f0160208091040260200160405190810160405280939291908181526020018383808284378201915050505050509192919290505050610a63565b005b34801561014e57600080fd5b506101ef600480360381019080803590602001908201803590602001908080601f0160208091040260200160405190810160405280939291908181526020018383808284378201915050505050509192919290803590602001908201803590602001908080601f01602080910402602001604051908101604052809392919081815260200183838082843782019150505050505091929192905050506113c4565b005b3480156101fd57600080fd5b50610258600480360381019080803590602001908201803590602001908080601f0160208091040260200160405190810160405280939291908181526020018383808284378201915050505050509192919290505050611aad565b60405180806020018060200180602001806020018060200186810386528b818151815260200191508051906020019080838360005b838110156102a857808201518184015260208101905061028d565b50505050905090810190601f1680156102d55780820380516001836020036101000a031916815260200191505b5086810385528a818151815260200191508051906020019080838360005b8381101561030e5780820151818401526020810190506102f3565b50505050905090810190601f16801561033b5780820380516001836020036101000a031916815260200191505b50868103845289818151815260200191508051906020019080838360005b83811015610374578082015181840152602081019050610359565b50505050905090810190601f1680156103a15780820380516001836020036101000a031916815260200191505b50868103835288818151815260200191508051906020019080838360005b838110156103da5780820151818401526020810190506103bf565b50505050905090810190601f1680156104075780820380516001836020036101000a031916815260200191505b50868103825287818151815260200191508051906020019080838360005b83811015610440578082015181840152602081019050610425565b50505050905090810190601f16801561046d5780820380516001836020036101000a031916815260200191505b509a505050505050505050505060405180910390f35b34801561048f57600080fd5b506104ea600480360381019080803590602001908201803590602001908080601f0160208091040260200160405190810160405280939291908181526020018383808284378201915050505050509192919290505050611e9c565b6040518080602001898152602001806020018873ffffffffffffffffffffffffffffffffffffffff1673ffffffffffffffffffffffffffffffffffffffff16815260200187600381111561053a57fe5b60ff16815260200186600981111561054e57fe5b60ff168152602001806020018060200185810385528d818151815260200191508051906020019080838360005b8381101561059657808201518184015260208101905061057b565b50505050905090810190601f1680156105c35780820380516001836020036101000a031916815260200191505b5085810384528b818151815260200191508051906020019080838360005b838110156105fc5780820151818401526020810190506105e1565b50505050905090810190601f1680156106295780820380516001836020036101000a031916815260200191505b50858103835287818151815260200191508051906020019080838360005b83811015610662578082015181840152602081019050610647565b50505050905090810190601f16801561068f5780820380516001836020036101000a031916815260200191505b50858103825286818151815260200191508051906020019080838360005b838110156106c85780820151818401526020810190506106ad565b50505050905090810190601f1680156106f55780820380516001836020036101000a031916815260200191505b509c5050505050505050505050505060405180910390f35b34801561071957600080fd5b5061075b600480360381019080803573ffffffffffffffffffffffffffffffffffffffff169060200190929190803560ff1690602001909291905050506122be565b005b34801561076957600080fd5b50610972600480360381019080803590602001908201803590602001908080601f016020809104026020016040519081016040528093929190818152602001838380828437820191505050505050919291929080359060200190929190803590602001908201803590602001908080601f0160208091040260200160405190810160405280939291908181526020018383808284378201915050505050509192919290803590602001908201803590602001908080601f0160208091040260200160405190810160405280939291908181526020018383808284378201915050505050509192919290803590602001908201803590602001908080601f0160208091040260200160405190810160405280939291908181526020018383808284378201915050505050509192919290803590602001908201803590602001908080601f0160208091040260200160405190810160405280939291908181526020018383808284378201915050505050509192919290803590602001908201803590602001908080601f0160208091040260200160405190810160405280939291908181526020018383808284378201915050505050509192919290803590602001908201803590602001908080601f016020809104026020016040519081016040528093929190818152602001838380828437820191505050505050919291929050505061247a565b005b34801561098057600080fd5b506109b5600480360381019080803573ffffffffffffffffffffffffffffffffffffffff1690602001909291905050506128a6565b604051808373ffffffffffffffffffffffffffffffffffffffff1673ffffffffffffffffffffffffffffffffffffffff1681526020018260098111156109f757fe5b60ff1681526020019250505060405180910390f35b348015610a1857600080fd5b50610a216128f7565b604051808273ffffffffffffffffffffffffffffffffffffffff1673ffffffffffffffffffffffffffffffffffffffff16815260200191505060405180910390f35b6000600160003373ffffffffffffffffffffffffffffffffffffffff1673ffffffffffffffffffffffffffffffffffffffff16815260200190815260200160002060000160009054906101000a900473ffffffffffffffffffffffffffffffffffffffff1673ffffffffffffffffffffffffffffffffffffffff1614151515610b54576040517f08c379a000000000000000000000000000000000000000000000000000000000815260040180806020018281038252600c8152602001807f496e76616c69642055736572000000000000000000000000000000000000000081525060200191505060405180910390fd5b8160006002826040518082805190602001908083835b602083101515610b8f5780518252602082019150602081019050602083039250610b6a565b6001836020036101000a038019825116818451168082178552505050505050905001915050908152602001604051809103902060030160009054906101000a900473ffffffffffffffffffffffffffffffffffffffff1673ffffffffffffffffffffffffffffffffffffffff1614151515610c72576040517f08c379a000000000000000000000000000000000000000000000000000000000815260040180806020018281038252600d8152602001807f496e76616c69642062617463680000000000000000000000000000000000000081525060200191505060405180910390fd5b8260016003811115610c8057fe5b6002826040518082805190602001908083835b602083101515610cb85780518252602082019150602081019050602083039250610c93565b6001836020036101000a038019825116818451168082178552505050505050905001915050908152602001604051809103902060030160149054906101000a900460ff166003811115610d0757fe5b14158015610dce57503373ffffffffffffffffffffffffffffffffffffffff166002826040518082805190602001908083835b602083101515610d5f5780518252602082019150602081019050602083039250610d3a565b6001836020036101000a038019825116818451168082178552505050505050905001915050908152602001604051809103902060030160009054906101000a900473ffffffffffffffffffffffffffffffffffffffff1673ffffffffffffffffffffffffffffffffffffffff16145b1515610e42576040517f08c379a00000000000000000000000000000000000000000000000000000000081526004018080602001828103825260198152602001807f43616e6e6f74206469737061746368207468652062617463680000000000000081525060200191505060405180910390fd5b83600160003373ffffffffffffffffffffffffffffffffffffffff1673ffffffffffffffffffffffffffffffffffffffff16815260200190815260200160002060000160149054906101000a900460ff166009811115610e9e57fe5b60016002836040518082805190602001908083835b602083101515610ed85780518252602082019150602081019050602083039250610eb3565b6001836020036101000a038019825116818451168082178552505050505050905001915050908152602001604051809103902060030160159054906101000a900460ff166009811115610f2757fe5b01141515610fc3576040517f08c379a00000000000000000000000000000000000000000000000000000000081526004018080602001828103825260288152602001807f596f7520617265206e6f7420616c6c6f77656420746f2072656365697665207481526020017f686520626174636800000000000000000000000000000000000000000000000081525060400191505060405180910390fd5b8484806040518082805190602001908083835b602083101515610ffb5780518252602082019150602081019050602083039250610fd6565b6001836020036101000a0380198251168184511680821785525050505050509050019150506040518091039020600019166002836040518082805190602001908083835b602083101515611064578051825260208201915060208101905060208303925061103f565b6001836020036101000a038019825116818451168082178552505050505050905001915050908152602001604051809103902060050160405180828054600181600116156101000203166002900480156110f55780601f106110d35761010080835404028352918201916110f5565b820191906000526020600020905b8154815290600101906020018083116110e1575b50509150506040518091039020600019161415156111a1576040517f08c379a00000000000000000000000000000000000000000000000000000000081526004018080602001828103825260228152602001807f44657374696e6174696f6e20636f756e74727920646f6573206e6f74206d617481526020017f636800000000000000000000000000000000000000000000000000000000000081525060400191505060405180910390fd5b600280886040518082805190602001908083835b6020831015156111da57805182526020820191506020810190506020830392506111b5565b6001836020036101000a038019825116818451168082178552505050505050905001915050908152602001604051809103902060030160146101000a81548160ff0219169083600381111561122b57fe5b0217905550336002886040518082805190602001908083835b6020831015156112695780518252602082019150602081019050602083039250611244565b6001836020036101000a038019825116818451168082178552505050505050905001915050908152602001604051809103902060030160006101000a81548173ffffffffffffffffffffffffffffffffffffffff021916908373ffffffffffffffffffffffffffffffffffffffff160217905550600160003373ffffffffffffffffffffffffffffffffffffffff1673ffffffffffffffffffffffffffffffffffffffff16815260200190815260200160002060000160149054906101000a900460ff166002886040518082805190602001908083835b6020831015156113655780518252602082019150602081019050602083039250611340565b6001836020036101000a038019825116818451168082178552505050505050905001915050908152602001604051809103902060030160156101000a81548160ff021916908360098111156113b657fe5b021790555050505050505050565b6000600160003373ffffffffffffffffffffffffffffffffffffffff1673ffffffffffffffffffffffffffffffffffffffff16815260200190815260200160002060000160009054906101000a900473ffffffffffffffffffffffffffffffffffffffff1673ffffffffffffffffffffffffffffffffffffffff16141515156114b5576040517f08c379a000000000000000000000000000000000000000000000000000000000815260040180806020018281038252600c8152602001807f496e76616c69642055736572000000000000000000000000000000000000000081525060200191505060405180910390fd5b8160006002826040518082805190602001908083835b6020831015156114f057805182526020820191506020810190506020830392506114cb565b6001836020036101000a038019825116818451168082178552505050505050905001915050908152602001604051809103902060030160009054906101000a900473ffffffffffffffffffffffffffffffffffffffff1673ffffffffffffffffffffffffffffffffffffffff16141515156115d3576040517f08c379a000000000000000000000000000000000000000000000000000000000815260040180806020018281038252600d8152602001807f496e76616c69642062617463680000000000000000000000000000000000000081525060200191505060405180910390fd5b82600260038111156115e157fe5b6002826040518082805190602001908083835b60208310151561161957805182526020820191506020810190506020830392506115f4565b6001836020036101000a038019825116818451168082178552505050505050905001915050908152602001604051809103902060030160149054906101000a900460ff16600381111561166857fe5b141515156116de576040517f08c379a00000000000000000000000000000000000000000000000000000000081526004018080602001828103825260188152602001807f42617463682063616e6e6f74206265207265636569766564000000000000000081525060200191505060405180910390fd5b833373ffffffffffffffffffffffffffffffffffffffff166002826040518082805190602001908083835b60208310151561172e5780518252602082019150602081019050602083039250611709565b6001836020036101000a038019825116818451168082178552505050505050905001915050908152602001604051809103902060030160009054906101000a900473ffffffffffffffffffffffffffffffffffffffff1673ffffffffffffffffffffffffffffffffffffffff16141515611836576040517f08c379a00000000000000000000000000000000000000000000000000000000081526004018080602001828103825260298152602001807f596f7520617265206e6f7420616c6c6f77656420746f2064697370617463682081526020017f746865206261746368000000000000000000000000000000000000000000000081525060400191505060405180910390fd5b8484806040518082805190602001908083835b60208310151561186e5780518252602082019150602081019050602083039250611849565b6001836020036101000a0380198251168184511680821785525050505050509050019150506040518091039020600019166002836040518082805190602001908083835b6020831015156118d757805182526020820191506020810190506020830392506118b2565b6001836020036101000a038019825116818451168082178552505050505050905001915050908152602001604051809103902060050160405180828054600181600116156101000203166002900480156119685780601f10611946576101008083540402835291820191611968565b820191906000526020600020905b815481529060010190602001808311611954575b5050915050604051809103902060001916141515611a14576040517f08c379a00000000000000000000000000000000000000000000000000000000081526004018080602001828103825260228152602001807f44657374696e6174696f6e20636f756e74727920646f6573206e6f74206d617481526020017f636800000000000000000000000000000000000000000000000000000000000081525060400191505060405180910390fd5b60016002886040518082805190602001908083835b602083101515611a4e5780518252602082019150602081019050602083039250611a29565b6001836020036101000a038019825116818451168082178552505050505050905001915050908152602001604051809103902060030160146101000a81548160ff02191690836003811115611a9f57fe5b021790555050505050505050565b6060806060806060611abd61291c565b6003876040518082805190602001908083835b602083101515611af55780518252602082019150602081019050602083039250611ad0565b6001836020036101000a038019825116818451168082178552505050505050905001915050908152602001604051809103902060a06040519081016040529081600082018054600181600116156101000203166002900480601f016020809104026020016040519081016040528092919081815260200182805460018160011615610100020316600290048015611bcd5780601f10611ba257610100808354040283529160200191611bcd565b820191906000526020600020905b815481529060010190602001808311611bb057829003601f168201915b50505050508152602001600182018054600181600116156101000203166002900480601f016020809104026020016040519081016040528092919081815260200182805460018160011615610100020316600290048015611c6f5780601f10611c4457610100808354040283529160200191611c6f565b820191906000526020600020905b815481529060010190602001808311611c5257829003601f168201915b50505050508152602001600282018054600181600116156101000203166002900480601f016020809104026020016040519081016040528092919081815260200182805460018160011615610100020316600290048015611d115780601f10611ce657610100808354040283529160200191611d11565b820191906000526020600020905b815481529060010190602001808311611cf457829003601f168201915b50505050508152602001600382018054600181600116156101000203166002900480601f016020809104026020016040519081016040528092919081815260200182805460018160011615610100020316600290048015611db35780601f10611d8857610100808354040283529160200191611db3565b820191906000526020600020905b815481529060010190602001808311611d9657829003601f168201915b50505050508152602001600482018054600181600116156101000203166002900480601f016020809104026020016040519081016040528092919081815260200182805460018160011615610100020316600290048015611e555780601f10611e2a57610100808354040283529160200191611e55565b820191906000526020600020905b815481529060010190602001808311611e3857829003601f168201915b505050505081525050905080600001518160200151826060015183604001518460800151849450839350829250819150809050955095509550955095505091939590929450565b6060600060606000806000606080611eb261294c565b60028a6040518082805190602001908083835b602083101515611eea5780518252602082019150602081019050602083039250611ec5565b6001836020036101000a03801982511681845116808217855250505050505090500191505090815260200160405180910390206101006040519081016040529081600082018054600181600116156101000203166002900480601f016020809104026020016040519081016040528092919081815260200182805460018160011615610100020316600290048015611fc35780601f10611f9857610100808354040283529160200191611fc3565b820191906000526020600020905b815481529060010190602001808311611fa657829003601f168201915b5050505050815260200160018201548152602001600282018054600181600116156101000203166002900480601f01602080910402602001604051908101604052809291908181526020018280546001816001161561010002031660029004801561206f5780601f106120445761010080835404028352916020019161206f565b820191906000526020600020905b81548152906001019060200180831161205257829003601f168201915b505050505081526020016003820160009054906101000a900473ffffffffffffffffffffffffffffffffffffffff1673ffffffffffffffffffffffffffffffffffffffff1673ffffffffffffffffffffffffffffffffffffffff1681526020016003820160149054906101000a900460ff1660038111156120ec57fe5b60038111156120f757fe5b81526020016003820160159054906101000a900460ff16600981111561211957fe5b600981111561212457fe5b8152602001600482018054600181600116156101000203166002900480601f0160208091040260200160405190810160405280929190818152602001828054600181600116156101000203166002900480156121c15780601f10612196576101008083540402835291602001916121c1565b820191906000526020600020905b8154815290600101906020018083116121a457829003601f168201915b50505050508152602001600582018054600181600116156101000203166002900480601f0160208091040260200160405190810160405280929190818152602001828054600181600116156101000203166002900480156122635780601f1061223857610100808354040283529160200191612263565b820191906000526020600020905b81548152906001019060200180831161224657829003601f168201915b5050505050815250509050806000015181602001518260400151836060015184608001518560a001518660c001518760e001518797508595508191508090509850985098509850985098509850985050919395975091939597565b6122c66129be565b6000809054906101000a900473ffffffffffffffffffffffffffffffffffffffff1673ffffffffffffffffffffffffffffffffffffffff163373ffffffffffffffffffffffffffffffffffffffff1614151561238a576040517f08c379a00000000000000000000000000000000000000000000000000000000081526004018080602001828103825260198152602001807f41646d696e207065726d697373696f6e2072657175697265640000000000000081525060200191505060405180910390fd5b60408051908101604052808473ffffffffffffffffffffffffffffffffffffffff1681526020018360098111156123bd57fe5b815250905080600160008573ffffffffffffffffffffffffffffffffffffffff1673ffffffffffffffffffffffffffffffffffffffff16815260200190815260200160002060008201518160000160006101000a81548173ffffffffffffffffffffffffffffffffffffffff021916908373ffffffffffffffffffffffffffffffffffffffff16021790555060208201518160000160146101000a81548160ff0219169083600981111561246d57fe5b0217905550905050505050565b61248261294c565b61248a61291c565b6000809054906101000a900473ffffffffffffffffffffffffffffffffffffffff1673ffffffffffffffffffffffffffffffffffffffff163373ffffffffffffffffffffffffffffffffffffffff1614151561254e576040517f08c379a00000000000000000000000000000000000000000000000000000000081526004018080602001828103825260198152602001807f41646d696e207065726d697373696f6e2072657175697265640000000000000081525060200191505060405180910390fd5b610100604051908101604052808b81526020018a81526020018681526020016000809054906101000a900473ffffffffffffffffffffffffffffffffffffffff1673ffffffffffffffffffffffffffffffffffffffff168152602001600060038111156125b757fe5b8152602001600060098111156125c957fe5b815260200185815260200184815250915060a0604051908101604052808b8152602001898152602001888152602001878152602001602060405190810160405280600081525081525090508160028b6040518082805190602001908083835b60208310151561264d5780518252602082019150602081019050602083039250612628565b6001836020036101000a0380198251168184511680821785525050505050509050019150509081526020016040518091039020600082015181600001908051906020019061269c9291906129f9565b506020820151816001015560408201518160020190805190602001906126c39291906129f9565b5060608201518160030160006101000a81548173ffffffffffffffffffffffffffffffffffffffff021916908373ffffffffffffffffffffffffffffffffffffffff16021790555060808201518160030160146101000a81548160ff0219169083600381111561272f57fe5b021790555060a08201518160030160156101000a81548160ff0219169083600981111561275857fe5b021790555060c08201518160040190805190602001906127799291906129f9565b5060e08201518160050190805190602001906127969291906129f9565b509050508060038b6040518082805190602001908083835b6020831015156127d357805182526020820191506020810190506020830392506127ae565b6001836020036101000a038019825116818451168082178552505050505050905001915050908152602001604051809103902060008201518160000190805190602001906128229291906129f9565b50602082015181600101908051906020019061283f9291906129f9565b50604082015181600201908051906020019061285c9291906129f9565b5060608201518160030190805190602001906128799291906129f9565b5060808201518160040190805190602001906128969291906129f9565b5090505050505050505050505050565b60016020528060005260406000206000915090508060000160009054906101000a900473ffffffffffffffffffffffffffffffffffffffff16908060000160149054906101000a900460ff16905082565b6000809054906101000a900473ffffffffffffffffffffffffffffffffffffffff1681565b60a06040519081016040528060608152602001606081526020016060815260200160608152602001606081525090565b61010060405190810160405280606081526020016000815260200160608152602001600073ffffffffffffffffffffffffffffffffffffffff1681526020016000600381111561299857fe5b8152602001600060098111156129aa57fe5b815260200160608152602001606081525090565b6040805190810160405280600073ffffffffffffffffffffffffffffffffffffffff168152602001600060098111156129f357fe5b81525090565b828054600181600116156101000203166002900490600052602060002090601f016020900481019282601f10612a3a57805160ff1916838001178555612a68565b82800160010185558215612a68579182015b82811115612a67578251825591602001919060010190612a4c565b5b509050612a759190612a79565b5090565b612a9b91905b80821115612a97576000816000905550600101612a7f565b5090565b905600a165627a7a72305820b834f5cd90053d0b17e7d8a4696a3760bd895dbdda22261908ea75ee27c108830029",
  "source": "pragma solidity ^0.4.22;\n\ncontract Medchain {\n    address public admin;\n    \n    enum USERTYPES {\n        ADMIN,\n        AIRLINE,\n        GROUNDCLEARANCE,\n        CUSTOM,\n        WAREHOUSE,\n        DISTRIBUTOR,\n        PHARMACY,\n        NGO,\n        CUSTOMER,\n        DOCTOR\n    }\n    \n    enum STATUS {\n        CREATED,\n        DISPATCHED,\n        RECEIVED,\n        DELIVERED\n    }\n    \n    struct Batch {\n        string batchId;\n        uint noOfMedicines;\n        string location;\n        address currentOwner;\n        STATUS status;\n        USERTYPES currentOwnerType;\n        string sourceCountry;\n        string destinationCountry;\n    }\n    \n    struct BatchDate {\n        string batchId;\n        string manufacturedDate;\n        string createdDate;\n        string expiryDate;\n        string deliveredDate;\n    }\n    mapping(address=>User) public users;\n    mapping(string=>Batch) private batches;\n    mapping(string=>BatchDate) private batchdates;\n    \n    modifier onlyAdmin(){\n        require(msg.sender==admin,\"Admin permission required\");\n        _;\n    }\n    \n    modifier onlyvalidUser(){\n        require(users[msg.sender].userAccount!=0,\"Invalid User\");\n        _;\n    }\n    \n    modifier checkBatch(string _batchId){\n        require(batches[_batchId].currentOwner!=0,\"Invalid batch\");\n        _;\n    }\n    \n    modifier canDispatch(string _batchId){\n        require(batches[_batchId].status!=STATUS.DISPATCHED && batches[_batchId].currentOwner==msg.sender ,\"Cannot dispatch the batch\");\n        _;\n    }\n    \n    modifier canReceiveBatch(string _batchId) { \n        require(batches[_batchId].status!=STATUS.RECEIVED, \"Batch cannot be received\");\n        _; \n    }\n    \n    modifier onlyValidDestination(string _batchId, string _destinationCountry) { \n        require(keccak256(batches[_batchId].destinationCountry)==keccak256(_destinationCountry), \"Destination country does not match\");\n        _;\n    }\n    modifier checkPreviousUser(string _batchId) { \n        require(uint(batches[_batchId].currentOwnerType)+1==uint(users[msg.sender].userType), \"You are not allowed to receive the batch\");\n        _; \n    }\n    modifier checkSameUser(string _batchId) { \n        require(batches[_batchId].currentOwner==msg.sender, \"You are not allowed to dispatch the batch\");\n        _; \n    }\n    \n    \n    struct User {\n        address userAccount;\n        USERTYPES userType;\n    }\n    constructor() public {\n        admin = msg.sender;\n        createUser(admin, USERTYPES.ADMIN);\n    }\n    \n    function createUser(address _useraccount, USERTYPES _userType) onlyAdmin public {\n        User memory data = User(_useraccount, _userType);\n        users[_useraccount]=data;\n    }\n    \n    function createBatch(string _batchId,\n                         uint _noOfMedicines,\n                         string _manufacturedDate,\n                         string _createdDate,\n                         string _expirydate,\n                         string _location,\n                         string _sourceCountry,\n                         string _destinationCountry) \n                         onlyAdmin \n                         public{\n                             Batch memory data = Batch(_batchId, _noOfMedicines, _location, admin,STATUS.CREATED, USERTYPES.ADMIN, _sourceCountry, _destinationCountry);\n                             BatchDate memory datedata = BatchDate(_batchId, _manufacturedDate, _createdDate, _expirydate, \"\");\n                             batches[_batchId] = data;\n                             batchdates[_batchId]= datedata;\n                         }\n                         \n    function getBatchData(string _batchId) \n    public \n    view\n    returns(string, uint, string, address, STATUS, USERTYPES, string, string){\n        Batch memory data = batches[_batchId];\n        \n        return (data.batchId, data.noOfMedicines, data.location, data.currentOwner, data.status, data.currentOwnerType, data.sourceCountry, data.destinationCountry);\n    }\n    \n    function getBatchDateData(string _batchId) \n    public \n    view\n    returns(string,string,string, string, string){\n        BatchDate memory data = batchdates[_batchId];\n        return (data.batchId ,data.manufacturedDate, data.expiryDate,data.createdDate, data.deliveredDate);\n    }\n    \n    function dispatchBatch(string _batchId, string _destinationCountry)\n    onlyvalidUser()\n    checkBatch(_batchId)\n    canReceiveBatch( _batchId)\n    checkSameUser(_batchId)\n    onlyValidDestination(_batchId,_destinationCountry)\n    public\n    {\n        batches[_batchId].status = STATUS.DISPATCHED;\n    }\n    \n    function receiveBatch(string _batchId, string _destinationCountry)\n    onlyvalidUser()\n    checkBatch(_batchId)\n    canDispatch( _batchId)\n    checkPreviousUser(_batchId)\n    onlyValidDestination(_batchId,_destinationCountry)\n    public\n    {\n        batches[_batchId].status = STATUS.RECEIVED;\n        batches[_batchId].currentOwner = msg.sender;\n        batches[_batchId].currentOwnerType = users[msg.sender].userType;\n    }\n    \n}",
  "sourcePath": "/Users/sonu-5819/DevDayAPI/contracts/Medchain.sol",
  "compiler": {
    "name": "solc",
    "version": "0.4.24+commit.e67f0147.Emscripten.clang"
  },
  "schemaVersion": "2.0.1",
  "updatedAt": "2018-10-27T09:24:02.558Z"
}