{
  "contractName": "Medchain",
  "abi": [
    {
      "constant": false,
      "inputs": [
        {
          "name": "_batchId",
          "type": "string"
        },
        {
          "name": "_destinationCountry",
          "type": "string"
        }
      ],
      "name": "receiveBatch",
      "outputs": [
        {
          "name": "userAccount",
          "type": "address"
        },
        {
          "name": "userType",
          "type": "uint8"
        }
      ],
      "payable": false,
      "stateMutability": "nonpayable",
      "type": "function"
    },
    {
      "constant": false,
      "inputs": [
        {
          "name": "_userName",
          "type": "string"
        },
        {
          "name": "_useraccount",
          "type": "address"
        },
        {
          "name": "_userType",
          "type": "uint8"
        }
      ],
      "name": "createUser",
      "outputs": [
        {
          "name": "",
          "type": "address"
        }
      ],
      "payable": false,
      "stateMutability": "nonpayable",
      "type": "function"
    },
    {
      "inputs": [
        {
          "name": "_batchId",
          "type": "string"
        },
        {
          "name": "_destinationCountry",
          "type": "string"
        }
      ],
      "payable": false,
      "stateMutability": "nonpayable",
      "type": "function",
      "constant": false,
      "name": "dispatchBatch",
      "outputs": []
    },
    {
      "constant": true,
      "inputs": [
        {
          "name": "_batchId",
          "type": "string"
        },
        {
          "name": "_userType",
          "type": "uint8"
        }
      ],
      "name": "getBatchDateData",
      "outputs": [
        {
          "name": "",
          "type": "string"
        },
        {
          "name": "",
          "type": "string"
        },
        {
          "name": "",
          "type": "string"
        },
        {
          "name": "",
          "type": "string"
        },
        {
          "name": "",
          "type": "string"
        }
      ],
      "payable": false,
      "stateMutability": "view",
      "type": "function"
    },
    {
      "constant": true,
      "inputs": [
        {
          "name": "_batchId",
          "type": "string"
        },
        {
          "name": "_noOfMedicines",
          "type": "uint256"
        },
        {
          "name": "_manufacturedDate",
          "type": "string"
        },
        {
          "name": "_createdDate",
          "type": "string"
        },
        {
          "name": "_expirydate",
          "type": "string"
        },
        {
          "name": "_location",
          "type": "string"
        },
        {
          "name": "_sourceCountry",
          "type": "string"
        },
        {
          "name": "_destinationCountry",
          "type": "string"
        }
      ],
      "name": "getBatchData",
      "outputs": [
        {
          "name": "",
          "type": "string"
        },
        {
          "name": "",
          "type": "uint256"
        },
        {
          "name": "",
          "type": "string"
        },
        {
          "name": "",
          "type": "string"
        },
        {
          "name": "",
          "type": "address"
        },
        {
          "name": "",
          "type": "uint8"
        },
        {
          "name": "",
          "type": "uint8"
        },
        {
          "name": "",
          "type": "string"
        },
        {
          "name": "",
          "type": "string"
        }
      ],
      "payable": false,
      "stateMutability": "view",
      "type": "function"
    },
    {
      "constant": false,
      "inputs": [
        {
          "name": "_batchId",
          "type": "string"
        },
        {
          "name": "_noOfMedicines",
          "type": "uint256"
        },
        {
          "name": "_manufacturedDate",
          "type": "string"
        },
        {
          "name": "_createdDate",
          "type": "string"
        },
        {
          "name": "_expirydate",
          "type": "string"
        },
        {
          "name": "_location",
          "type": "string"
        },
        {
          "name": "_sourceCountry",
          "type": "string"
        },
        {
          "name": "_destinationCountry",
          "type": "string"
        }
      ],
      "name": "createBatch",
      "outputs": [
        {
          "name": "",
          "type": "string"
        },
        {
          "name": "",
          "type": "uint256"
        },
        {
          "name": "",
          "type": "string"
        },
        {
          "name": "",
          "type": "address"
        },
        {
          "name": "",
          "type": "uint8"
        },
        {
          "name": "",
          "type": "uint8"
        },
        {
          "name": "",
          "type": "string"
        },
        {
          "name": "",
          "type": "string"
        }
      ],
      "payable": false,
      "stateMutability": "nonpayable",
      "type": "function"
    },
    {
      "constant": true,
      "inputs": [
        {
          "name": "",
          "type": "address"
        }
      ],
      "name": "users",
      "outputs": [
        {
          "name": "userName",
          "type": "string"
        },
        {
          "name": "userAccount",
          "type": "address"
        },
        {
          "name": "userType",
          "type": "uint8"
        },
        {
          "name": "",
          "type": "string"
        },
        {
          "name": "",
          "type": "string"
        }
      ],
      "payable": false,
      "stateMutability": "view",
      "type": "function"
    },
    {
      "constant": true,
      "inputs": [
        {
          "name": "_batchId",
          "type": "string"
        },
        {
          "name": "_destinationCountry",
          "type": "string"
        }
      ],
      "name": "admin",
      "outputs": [
        {
          "name": "",
          "type": "address"
        }
      ],
      "payable": false,
      "stateMutability": "view",
      "type": "function"
    },
    {
      "constant": false,
      "inputs": [
        {
          "name": "_batchId",
          "type": "string"
        },
        {
          "name": "_destinationCountry",
          "type": "string"
        }
      ],
      "name": "receiveBatch",
      "outputs": [],
      "payable": false,
      "stateMutability": "nonpayable",
      "type": "constructor"
    }
  ],
  "bytecode": "0x606060405234156200001057600080fd5b336000806101000a81548173ffffffffffffffffffffffffffffffffffffffff021916908373ffffffffffffffffffffffffffffffffffffffff160217905550620000c86040805190810160405280600d81526020017f4d6564547261636b41646d696e000000000000000000000000000000000000008152506000809054906101000a900473ffffffffffffffffffffffffffffffffffffffff166000620000ce6401000000000262001307176401000000009004565b6200035c565b620000d86200024d565b6000809054906101000a900473ffffffffffffffffffffffffffffffffffffffff1673ffffffffffffffffffffffffffffffffffffffff163373ffffffffffffffffffffffffffffffffffffffff161415156200013457600080fd5b6060604051908101604052808581526020018473ffffffffffffffffffffffffffffffffffffffff1681526020018360098111156200016f57fe5b815250905080600160008573ffffffffffffffffffffffffffffffffffffffff1673ffffffffffffffffffffffffffffffffffffffff1681526020019081526020016000206000820151816000019080519060200190620001d292919062000299565b5060208201518160010160006101000a81548173ffffffffffffffffffffffffffffffffffffffff021916908373ffffffffffffffffffffffffffffffffffffffff16021790555060408201518160010160146101000a81548160ff021916908360098111156200023f57fe5b021790555090505050505050565b6060604051908101604052806200026362000320565b8152602001600073ffffffffffffffffffffffffffffffffffffffff168152602001600060098111156200029357fe5b81525090565b828054600181600116156101000203166002900490600052602060002090601f016020900481019282601f10620002dc57805160ff19168380011785556200030d565b828001600101855582156200030d579182015b828111156200030c578251825591602001919060010190620002ef565b5b5090506200031c919062000334565b5090565b602060405190810160405280600081525090565b6200035991905b80821115620003555760008160009055506001016200033b565b5090565b90565b612955806200036c6000396000f30060606040526004361061008e576000357c0100000000000000000000000000000000000000000000000000000000900463ffffffff1680630b1abc5514610093578063231e261e146101335780632b7c98bc146101bb5780634c15de681461025b578063847648b8146104e15780639916a1d6146107cb578063a87430ba146109c3578063f851a44014610ada575b600080fd5b341561009e57600080fd5b610131600480803590602001908201803590602001908080601f0160208091040260200160405190810160405280939291908181526020018383808284378201915050505050509190803590602001908201803590602001908080601f01602080910402602001604051908101604052809392919081815260200183838082843782019150505050505091905050610b2f565b005b341561013e57600080fd5b6101b9600480803590602001908201803590602001908080601f0160208091040260200160405190810160405280939291908181526020018383808284378201915050505050509190803573ffffffffffffffffffffffffffffffffffffffff1690602001909190803560ff16906020019091905050611307565b005b34156101c657600080fd5b610259600480803590602001908201803590602001908080601f0160208091040260200160405190810160405280939291908181526020018383808284378201915050505050509190803590602001908201803590602001908080601f0160208091040260200160405190810160405280939291908181526020018383808284378201915050505050509190505061147f565b005b341561026657600080fd5b6102b6600480803590602001908201803590602001908080601f0160208091040260200160405190810160405280939291908181526020018383808284378201915050505050509190505061190f565b60405180806020018060200180602001806020018060200186810386528b818151815260200191508051906020019080838360005b838110156103065780820151818401526020810190506102eb565b50505050905090810190601f1680156103335780820380516001836020036101000a031916815260200191505b5086810385528a818151815260200191508051906020019080838360005b8381101561036c578082015181840152602081019050610351565b50505050905090810190601f1680156103995780820380516001836020036101000a031916815260200191505b50868103845289818151815260200191508051906020019080838360005b838110156103d25780820151818401526020810190506103b7565b50505050905090810190601f1680156103ff5780820380516001836020036101000a031916815260200191505b50868103835288818151815260200191508051906020019080838360005b8381101561043857808201518184015260208101905061041d565b50505050905090810190601f1680156104655780820380516001836020036101000a031916815260200191505b50868103825287818151815260200191508051906020019080838360005b8381101561049e578082015181840152602081019050610483565b50505050905090810190601f1680156104cb5780820380516001836020036101000a031916815260200191505b509a505050505050505050505060405180910390f35b34156104ec57600080fd5b61053c600480803590602001908201803590602001908080601f01602080910402602001604051908101604052809392919081815260200183838082843782019150505050505091905050611d1e565b60405180806020018a815260200180602001806020018973ffffffffffffffffffffffffffffffffffffffff1673ffffffffffffffffffffffffffffffffffffffff16815260200188600381111561059057fe5b60ff1681526020018760098111156105a457fe5b60ff168152602001806020018060200186810386528f818151815260200191508051906020019080838360005b838110156105ec5780820151818401526020810190506105d1565b50505050905090810190601f1680156106195780820380516001836020036101000a031916815260200191505b5086810385528d818151815260200191508051906020019080838360005b83811015610652578082015181840152602081019050610637565b50505050905090810190601f16801561067f5780820380516001836020036101000a031916815260200191505b5086810384528c818151815260200191508051906020019080838360005b838110156106b857808201518184015260208101905061069d565b50505050905090810190601f1680156106e55780820380516001836020036101000a031916815260200191505b50868103835288818151815260200191508051906020019080838360005b8381101561071e578082015181840152602081019050610703565b50505050905090810190601f16801561074b5780820380516001836020036101000a031916815260200191505b50868103825287818151815260200191508051906020019080838360005b83811015610784578082015181840152602081019050610769565b50505050905090810190601f1680156107b15780820380516001836020036101000a031916815260200191505b509e50505050505050505050505050505060405180910390f35b34156107d657600080fd5b6109c1600480803590602001908201803590602001908080601f0160208091040260200160405190810160405280939291908181526020018383808284378201915050505050509190803590602001909190803590602001908201803590602001908080601f0160208091040260200160405190810160405280939291908181526020018383808284378201915050505050509190803590602001908201803590602001908080601f0160208091040260200160405190810160405280939291908181526020018383808284378201915050505050509190803590602001908201803590602001908080601f0160208091040260200160405190810160405280939291908181526020018383808284378201915050505050509190803590602001908201803590602001908080601f0160208091040260200160405190810160405280939291908181526020018383808284378201915050505050509190803590602001908201803590602001908080601f0160208091040260200160405190810160405280939291908181526020018383808284378201915050505050509190803590602001908201803590602001908080601f01602080910402602001604051908101604052809392919081815260200183838082843782019150505050505091905050612210565b005b34156109ce57600080fd5b6109fa600480803573ffffffffffffffffffffffffffffffffffffffff1690602001909190505061262c565b60405180806020018473ffffffffffffffffffffffffffffffffffffffff1673ffffffffffffffffffffffffffffffffffffffff168152602001836009811115610a4057fe5b60ff168152602001828103825285818154600181600116156101000203166002900481526020019150805460018160011615610100020316600290048015610ac95780601f10610a9e57610100808354040283529160200191610ac9565b820191906000526020600020905b815481529060010190602001808311610aac57829003601f168201915b505094505050505060405180910390f35b3415610ae557600080fd5b610aed612682565b604051808273ffffffffffffffffffffffffffffffffffffffff1673ffffffffffffffffffffffffffffffffffffffff16815260200191505060405180910390f35b6000600160003373ffffffffffffffffffffffffffffffffffffffff1673ffffffffffffffffffffffffffffffffffffffff16815260200190815260200160002060010160009054906101000a900473ffffffffffffffffffffffffffffffffffffffff1673ffffffffffffffffffffffffffffffffffffffff1614151515610bb757600080fd5b8160006002826040518082805190602001908083835b602083101515610bf25780518252602082019150602081019050602083039250610bcd565b6001836020036101000a038019825116818451168082178552505050505050905001915050908152602001604051809103902060040160009054906101000a900473ffffffffffffffffffffffffffffffffffffffff1673ffffffffffffffffffffffffffffffffffffffff1614151515610c6c57600080fd5b8260016003811115610c7a57fe5b6002826040518082805190602001908083835b602083101515610cb25780518252602082019150602081019050602083039250610c8d565b6001836020036101000a038019825116818451168082178552505050505050905001915050908152602001604051809103902060040160149054906101000a900460ff166003811115610d0157fe5b14158015610dc857503373ffffffffffffffffffffffffffffffffffffffff166002826040518082805190602001908083835b602083101515610d595780518252602082019150602081019050602083039250610d34565b6001836020036101000a038019825116818451168082178552505050505050905001915050908152602001604051809103902060040160009054906101000a900473ffffffffffffffffffffffffffffffffffffffff1673ffffffffffffffffffffffffffffffffffffffff16145b1515610dd357600080fd5b83600160003373ffffffffffffffffffffffffffffffffffffffff1673ffffffffffffffffffffffffffffffffffffffff16815260200190815260200160002060010160149054906101000a900460ff166009811115610e2f57fe5b60016002836040518082805190602001908083835b602083101515610e695780518252602082019150602081019050602083039250610e44565b6001836020036101000a038019825116818451168082178552505050505050905001915050908152602001604051809103902060040160159054906101000a900460ff166009811115610eb857fe5b01141515610ec557600080fd5b8484806040518082805190602001908083835b602083101515610efd5780518252602082019150602081019050602083039250610ed8565b6001836020036101000a0380198251168184511680821785525050505050509050019150506040518091039020600019166002836040518082805190602001908083835b602083101515610f665780518252602082019150602081019050602083039250610f41565b6001836020036101000a03801982511681845116808217855250505050505090500191505090815260200160405180910390206006016040518082805460018160011615610100020316600290048015610ff75780601f10610fd5576101008083540402835291820191610ff7565b820191906000526020600020905b815481529060010190602001808311610fe3575b505091505060405180910390206000191614151561101457600080fd5b600280886040518082805190602001908083835b60208310151561104d5780518252602082019150602081019050602083039250611028565b6001836020036101000a038019825116818451168082178552505050505050905001915050908152602001604051809103902060040160146101000a81548160ff0219169083600381111561109e57fe5b0217905550336002886040518082805190602001908083835b6020831015156110dc57805182526020820191506020810190506020830392506110b7565b6001836020036101000a038019825116818451168082178552505050505050905001915050908152602001604051809103902060040160006101000a81548173ffffffffffffffffffffffffffffffffffffffff021916908373ffffffffffffffffffffffffffffffffffffffff160217905550600160003373ffffffffffffffffffffffffffffffffffffffff1673ffffffffffffffffffffffffffffffffffffffff16815260200190815260200160002060010160149054906101000a900460ff166002886040518082805190602001908083835b6020831015156111d857805182526020820191506020810190506020830392506111b3565b6001836020036101000a038019825116818451168082178552505050505050905001915050908152602001604051809103902060040160156101000a81548160ff0219169083600981111561122957fe5b0217905550600160003373ffffffffffffffffffffffffffffffffffffffff1673ffffffffffffffffffffffffffffffffffffffff1681526020019081526020016000206000016002886040518082805190602001908083835b6020831015156112a85780518252602082019150602081019050602083039250611283565b6001836020036101000a038019825116818451168082178552505050505050905001915050908152602001604051809103902060030190805460018160011615610100020316600290046112fd9291906126a7565b5050505050505050565b61130f61272e565b6000809054906101000a900473ffffffffffffffffffffffffffffffffffffffff1673ffffffffffffffffffffffffffffffffffffffff163373ffffffffffffffffffffffffffffffffffffffff1614151561136a57600080fd5b6060604051908101604052808581526020018473ffffffffffffffffffffffffffffffffffffffff1681526020018360098111156113a457fe5b815250905080600160008573ffffffffffffffffffffffffffffffffffffffff1673ffffffffffffffffffffffffffffffffffffffff1681526020019081526020016000206000820151816000019080519060200190611405929190612777565b5060208201518160010160006101000a81548173ffffffffffffffffffffffffffffffffffffffff021916908373ffffffffffffffffffffffffffffffffffffffff16021790555060408201518160010160146101000a81548160ff0219169083600981111561147157fe5b021790555090505050505050565b6000600160003373ffffffffffffffffffffffffffffffffffffffff1673ffffffffffffffffffffffffffffffffffffffff16815260200190815260200160002060010160009054906101000a900473ffffffffffffffffffffffffffffffffffffffff1673ffffffffffffffffffffffffffffffffffffffff161415151561150757600080fd5b8160006002826040518082805190602001908083835b602083101515611542578051825260208201915060208101905060208303925061151d565b6001836020036101000a038019825116818451168082178552505050505050905001915050908152602001604051809103902060040160009054906101000a900473ffffffffffffffffffffffffffffffffffffffff1673ffffffffffffffffffffffffffffffffffffffff16141515156115bc57600080fd5b82600260038111156115ca57fe5b6002826040518082805190602001908083835b60208310151561160257805182526020820191506020810190506020830392506115dd565b6001836020036101000a038019825116818451168082178552505050505050905001915050908152602001604051809103902060040160149054906101000a900460ff16600381111561165157fe5b1415151561165e57600080fd5b833373ffffffffffffffffffffffffffffffffffffffff166002826040518082805190602001908083835b6020831015156116ae5780518252602082019150602081019050602083039250611689565b6001836020036101000a038019825116818451168082178552505050505050905001915050908152602001604051809103902060040160009054906101000a900473ffffffffffffffffffffffffffffffffffffffff1673ffffffffffffffffffffffffffffffffffffffff1614151561172757600080fd5b8484806040518082805190602001908083835b60208310151561175f578051825260208201915060208101905060208303925061173a565b6001836020036101000a0380198251168184511680821785525050505050509050019150506040518091039020600019166002836040518082805190602001908083835b6020831015156117c857805182526020820191506020810190506020830392506117a3565b6001836020036101000a038019825116818451168082178552505050505050905001915050908152602001604051809103902060060160405180828054600181600116156101000203166002900480156118595780601f10611837576101008083540402835291820191611859565b820191906000526020600020905b815481529060010190602001808311611845575b505091505060405180910390206000191614151561187657600080fd5b60016002886040518082805190602001908083835b6020831015156118b0578051825260208201915060208101905060208303925061188b565b6001836020036101000a038019825116818451168082178552505050505050905001915050908152602001604051809103902060040160146101000a81548160ff0219169083600381111561190157fe5b021790555050505050505050565b6119176127f7565b61191f6127f7565b6119276127f7565b61192f6127f7565b6119376127f7565b61193f61280b565b6003876040518082805190602001908083835b6020831015156119775780518252602082019150602081019050602083039250611952565b6001836020036101000a038019825116818451168082178552505050505050905001915050908152602001604051809103902060a06040519081016040529081600082018054600181600116156101000203166002900480601f016020809104026020016040519081016040528092919081815260200182805460018160011615610100020316600290048015611a4f5780601f10611a2457610100808354040283529160200191611a4f565b820191906000526020600020905b815481529060010190602001808311611a3257829003601f168201915b50505050508152602001600182018054600181600116156101000203166002900480601f016020809104026020016040519081016040528092919081815260200182805460018160011615610100020316600290048015611af15780601f10611ac657610100808354040283529160200191611af1565b820191906000526020600020905b815481529060010190602001808311611ad457829003601f168201915b50505050508152602001600282018054600181600116156101000203166002900480601f016020809104026020016040519081016040528092919081815260200182805460018160011615610100020316600290048015611b935780601f10611b6857610100808354040283529160200191611b93565b820191906000526020600020905b815481529060010190602001808311611b7657829003601f168201915b50505050508152602001600382018054600181600116156101000203166002900480601f016020809104026020016040519081016040528092919081815260200182805460018160011615610100020316600290048015611c355780601f10611c0a57610100808354040283529160200191611c35565b820191906000526020600020905b815481529060010190602001808311611c1857829003601f168201915b50505050508152602001600482018054600181600116156101000203166002900480601f016020809104026020016040519081016040528092919081815260200182805460018160011615610100020316600290048015611cd75780601f10611cac57610100808354040283529160200191611cd7565b820191906000526020600020905b815481529060010190602001808311611cba57829003601f168201915b505050505081525050905080600001518160200151826060015183604001518460800151849450839350829250819150809050955095509550955095505091939590929450565b611d266127f7565b6000611d306127f7565b611d386127f7565b6000806000611d456127f7565b611d4d6127f7565b611d55612859565b60028b6040518082805190602001908083835b602083101515611d8d5780518252602082019150602081019050602083039250611d68565b6001836020036101000a03801982511681845116808217855250505050505090500191505090815260200160405180910390206101206040519081016040529081600082018054600181600116156101000203166002900480601f016020809104026020016040519081016040528092919081815260200182805460018160011615610100020316600290048015611e665780601f10611e3b57610100808354040283529160200191611e66565b820191906000526020600020905b815481529060010190602001808311611e4957829003601f168201915b5050505050815260200160018201548152602001600282018054600181600116156101000203166002900480601f016020809104026020016040519081016040528092919081815260200182805460018160011615610100020316600290048015611f125780601f10611ee757610100808354040283529160200191611f12565b820191906000526020600020905b815481529060010190602001808311611ef557829003601f168201915b50505050508152602001600382018054600181600116156101000203166002900480601f016020809104026020016040519081016040528092919081815260200182805460018160011615610100020316600290048015611fb45780601f10611f8957610100808354040283529160200191611fb4565b820191906000526020600020905b815481529060010190602001808311611f9757829003601f168201915b505050505081526020016004820160009054906101000a900473ffffffffffffffffffffffffffffffffffffffff1673ffffffffffffffffffffffffffffffffffffffff1673ffffffffffffffffffffffffffffffffffffffff1681526020016004820160149054906101000a900460ff16600381111561203157fe5b600381111561203c57fe5b81526020016004820160159054906101000a900460ff16600981111561205e57fe5b600981111561206957fe5b8152602001600582018054600181600116156101000203166002900480601f0160208091040260200160405190810160405280929190818152602001828054600181600116156101000203166002900480156121065780601f106120db57610100808354040283529160200191612106565b820191906000526020600020905b8154815290600101906020018083116120e957829003601f168201915b50505050508152602001600682018054600181600116156101000203166002900480601f0160208091040260200160405190810160405280929190818152602001828054600181600116156101000203166002900480156121a85780601f1061217d576101008083540402835291602001916121a8565b820191906000526020600020905b81548152906001019060200180831161218b57829003601f168201915b5050505050815250509050806000015181602001518260400151836060015184608001518560a001518660c001518760e00151886101000151889850869650859550819150809050995099509950995099509950995099509950509193959799909294969850565b612218612859565b61222061280b565b6000809054906101000a900473ffffffffffffffffffffffffffffffffffffffff1673ffffffffffffffffffffffffffffffffffffffff163373ffffffffffffffffffffffffffffffffffffffff1614151561227b57600080fd5b610120604051908101604052808b81526020018a81526020018681526020016040805190810160405280600d81526020017f4d6564547261636b41646d696e0000000000000000000000000000000000000081525081526020016000809054906101000a900473ffffffffffffffffffffffffffffffffffffffff1673ffffffffffffffffffffffffffffffffffffffff1681526020016000600381111561231f57fe5b81526020016000600981111561233157fe5b815260200185815260200184815250915060a0604051908101604052808b8152602001898152602001888152602001878152602001602060405190810160405280600081525081525090508160028b6040518082805190602001908083835b6020831015156123b55780518252602082019150602081019050602083039250612390565b6001836020036101000a03801982511681845116808217855250505050505090500191505090815260200160405180910390206000820151816000019080519060200190612404929190612777565b5060208201518160010155604082015181600201908051906020019061242b929190612777565b506060820151816003019080519060200190612448929190612777565b5060808201518160040160006101000a81548173ffffffffffffffffffffffffffffffffffffffff021916908373ffffffffffffffffffffffffffffffffffffffff16021790555060a08201518160040160146101000a81548160ff021916908360038111156124b457fe5b021790555060c08201518160040160156101000a81548160ff021916908360098111156124dd57fe5b021790555060e08201518160050190805190602001906124fe929190612777565b5061010082015181600601908051906020019061251c929190612777565b509050508060038b6040518082805190602001908083835b6020831015156125595780518252602082019150602081019050602083039250612534565b6001836020036101000a038019825116818451168082178552505050505050905001915050908152602001604051809103902060008201518160000190805190602001906125a8929190612777565b5060208201518160010190805190602001906125c5929190612777565b5060408201518160020190805190602001906125e2929190612777565b5060608201518160030190805190602001906125ff929190612777565b50608082015181600401908051906020019061261c929190612777565b5090505050505050505050505050565b600160205280600052604060002060009150905080600001908060010160009054906101000a900473ffffffffffffffffffffffffffffffffffffffff16908060010160149054906101000a900460ff16905083565b6000809054906101000a900473ffffffffffffffffffffffffffffffffffffffff1681565b828054600181600116156101000203166002900490600052602060002090601f016020900481019282601f106126e0578054855561271d565b8280016001018555821561271d57600052602060002091601f016020900482015b8281111561271c578254825591600101919060010190612701565b5b50905061272a91906128f0565b5090565b606060405190810160405280612742612915565b8152602001600073ffffffffffffffffffffffffffffffffffffffff1681526020016000600981111561277157fe5b81525090565b828054600181600116156101000203166002900490600052602060002090601f016020900481019282601f106127b857805160ff19168380011785556127e6565b828001600101855582156127e6579182015b828111156127e55782518255916020019190600101906127ca565b5b5090506127f391906128f0565b5090565b602060405190810160405280600081525090565b60a06040519081016040528061281f612915565b815260200161282c612915565b8152602001612839612915565b8152602001612846612915565b8152602001612853612915565b81525090565b6101206040519081016040528061286e612915565b815260200160008152602001612882612915565b815260200161288f612915565b8152602001600073ffffffffffffffffffffffffffffffffffffffff168152602001600060038111156128be57fe5b8152602001600060098111156128d057fe5b81526020016128dd612915565b81526020016128ea612915565b81525090565b61291291905b8082111561290e5760008160009055506001016128f6565b5090565b90565b6020604051908101604052806000815250905600a165627a7a72305820cef7d2e358921a73755fe2d00b348dc3738b52152752102e0eceb64a18fab5cc0029",
  "source": "pragma solidity ^0.4.18;\n\ncontract Medchain {\n    address public admin;\n    \n    enum USERTYPES {\n        ADMIN,\n        AIRLINE,\n        GROUNDCLEARANCE,\n        CUSTOM,\n        WAREHOUSE,\n        DISTRIBUTOR,\n        PHARMACY,\n        NGO,\n        CUSTOMER,\n        DOCTOR\n    }\n    \n    enum STATUS {\n        CREATED,\n        DISPATCHED,\n        RECEIVED,\n        DELIVERED\n    }\n    \n    struct Batch {\n        string batchId;\n        uint noOfMedicines;\n        string location;\n        string currentOwnerName;\n        address currentOwner;\n        STATUS status;\n        USERTYPES currentOwnerType;\n        string sourceCountry;\n        string destinationCountry;\n    }\n    \n    struct BatchDate {\n        string batchId;\n        string manufacturedDate;\n        string createdDate;\n        string expiryDate;\n        string deliveredDate;\n    }\n    mapping(address=>User) public users;\n    mapping(string=>Batch) private batches;\n    mapping(string=>BatchDate) private batchdates;\n    \n    modifier onlyAdmin(){\n        require(msg.sender==admin);\n        _;\n    }\n    \n    modifier onlyvalidUser(){\n        require(users[msg.sender].userAccount!=0);\n        _;\n    }\n    \n    modifier checkBatch(string _batchId){\n        require(batches[_batchId].currentOwner!=0);\n        _;\n    }\n    \n    modifier canDispatch(string _batchId){\n        require(batches[_batchId].status!=STATUS.DISPATCHED && batches[_batchId].currentOwner==msg.sender);\n        _;\n    }\n    \n    modifier canReceiveBatch(string _batchId) { \n        require(batches[_batchId].status!=STATUS.RECEIVED);\n        _; \n    }\n    \n    modifier onlyValidDestination(string _batchId, string _destinationCountry) { \n        require(keccak256(batches[_batchId].destinationCountry)==keccak256(_destinationCountry));\n        _;\n    }\n    modifier checkPreviousUser(string _batchId) { \n        require(uint(batches[_batchId].currentOwnerType)+1==uint(users[msg.sender].userType));\n        _; \n    }\n    modifier checkSameUser(string _batchId) { \n        require(batches[_batchId].currentOwner==msg.sender);\n        _; \n    }\n    \n    \n    struct User {\n        string userName;\n        address userAccount;\n        USERTYPES userType;\n    }\n    function Medchain() public {\n        admin = msg.sender;\n        createUser(\"MedTrackAdmin\", admin, USERTYPES.ADMIN);\n    }\n    \n    function createUser(string _userName, address _useraccount, USERTYPES _userType) onlyAdmin public {\n        User memory data = User(_userName,_useraccount, _userType);\n        users[_useraccount]=data;\n    }\n    \n    function createBatch(string _batchId,\n                         uint _noOfMedicines,\n                         string _manufacturedDate,\n                         string _createdDate,\n                         string _expirydate,\n                         string _location,\n                         string _sourceCountry,\n                         string _destinationCountry) \n                         onlyAdmin \n                         public{\n                             Batch memory data = Batch(_batchId, _noOfMedicines, _location,\"MedTrackAdmin\", admin,STATUS.CREATED, USERTYPES.ADMIN, _sourceCountry, _destinationCountry);\n                             BatchDate memory datedata = BatchDate(_batchId, _manufacturedDate, _createdDate, _expirydate, \"\");\n                             batches[_batchId] = data;\n                             batchdates[_batchId]= datedata;\n                         }\n                         \n    function getBatchData(string _batchId) \n    public \n    view\n    returns(string, uint, string,string, address, STATUS, USERTYPES, string, string){\n        Batch memory data = batches[_batchId];\n        \n        return (data.batchId, data.noOfMedicines, data.location,data.currentOwnerName, data.currentOwner, data.status, data.currentOwnerType, data.sourceCountry, data.destinationCountry);\n    }\n    \n    function getBatchDateData(string _batchId) \n    public \n    view\n    returns(string,string,string, string, string){\n        BatchDate memory data = batchdates[_batchId];\n        return (data.batchId ,data.manufacturedDate, data.expiryDate,data.createdDate, data.deliveredDate);\n    }\n    \n    function dispatchBatch(string _batchId, string _destinationCountry)\n    onlyvalidUser()\n    checkBatch(_batchId)\n    canReceiveBatch( _batchId)\n    checkSameUser(_batchId)\n    onlyValidDestination(_batchId,_destinationCountry)\n    public\n    {\n        batches[_batchId].status = STATUS.DISPATCHED;\n    }\n    \n    function receiveBatch(string _batchId, string _destinationCountry)\n    onlyvalidUser()\n    checkBatch(_batchId)\n    canDispatch( _batchId)\n    checkPreviousUser(_batchId)\n    onlyValidDestination(_batchId,_destinationCountry)\n    public\n    {\n        batches[_batchId].status = STATUS.RECEIVED;\n        batches[_batchId].currentOwner = msg.sender;\n        batches[_batchId].currentOwnerType = users[msg.sender].userType;\n        batches[_batchId].currentOwnerName = users[msg.sender].userName;\n    }\n    \n}",
  "sourcePath": "/Users/dreambig/Seetha/Hackathons/devday/DevDayAPI/contracts/Medchain.sol",
  "compiler": {
    "name": "solc",
    "version": "0.4.18+commit.9cf6e910.Emscripten.clang"
  },
  "schemaVersion": "1.0.1",
  "updatedAt": "2018-10-27T10:49:41.191Z"
}